{
  "contractName": "OrderUpgradeable",
  "abi": [
    {
      "anonymous": false,
      "inputs": [
        {
          "indexed": true,
          "internalType": "address",
          "name": "previousOwner",
          "type": "address"
        },
        {
          "indexed": true,
          "internalType": "address",
          "name": "newOwner",
          "type": "address"
        }
      ],
      "name": "OwnershipTransferred",
      "type": "event"
    },
    {
      "anonymous": false,
      "inputs": [
        {
          "indexed": true,
          "internalType": "bytes32",
          "name": "role",
          "type": "bytes32"
        },
        {
          "indexed": true,
          "internalType": "bytes32",
          "name": "previousAdminRole",
          "type": "bytes32"
        },
        {
          "indexed": true,
          "internalType": "bytes32",
          "name": "newAdminRole",
          "type": "bytes32"
        }
      ],
      "name": "RoleAdminChanged",
      "type": "event"
    },
    {
      "anonymous": false,
      "inputs": [
        {
          "indexed": true,
          "internalType": "bytes32",
          "name": "role",
          "type": "bytes32"
        },
        {
          "indexed": true,
          "internalType": "address",
          "name": "account",
          "type": "address"
        },
        {
          "indexed": true,
          "internalType": "address",
          "name": "sender",
          "type": "address"
        }
      ],
      "name": "RoleGranted",
      "type": "event"
    },
    {
      "anonymous": false,
      "inputs": [
        {
          "indexed": true,
          "internalType": "bytes32",
          "name": "role",
          "type": "bytes32"
        },
        {
          "indexed": true,
          "internalType": "address",
          "name": "account",
          "type": "address"
        },
        {
          "indexed": true,
          "internalType": "address",
          "name": "sender",
          "type": "address"
        }
      ],
      "name": "RoleRevoked",
      "type": "event"
    },
    {
      "inputs": [],
      "name": "DEFAULT_ADMIN_ROLE",
      "outputs": [
        {
          "internalType": "bytes32",
          "name": "",
          "type": "bytes32"
        }
      ],
      "stateMutability": "view",
      "type": "function"
    },
    {
      "inputs": [],
      "name": "MODERATOR_ROLE",
      "outputs": [
        {
          "internalType": "bytes32",
          "name": "",
          "type": "bytes32"
        }
      ],
      "stateMutability": "view",
      "type": "function"
    },
    {
      "inputs": [
        {
          "internalType": "bytes32",
          "name": "role",
          "type": "bytes32"
        }
      ],
      "name": "getRoleAdmin",
      "outputs": [
        {
          "internalType": "bytes32",
          "name": "",
          "type": "bytes32"
        }
      ],
      "stateMutability": "view",
      "type": "function"
    },
    {
      "inputs": [
        {
          "internalType": "bytes32",
          "name": "role",
          "type": "bytes32"
        },
        {
          "internalType": "uint256",
          "name": "index",
          "type": "uint256"
        }
      ],
      "name": "getRoleMember",
      "outputs": [
        {
          "internalType": "address",
          "name": "",
          "type": "address"
        }
      ],
      "stateMutability": "view",
      "type": "function"
    },
    {
      "inputs": [
        {
          "internalType": "bytes32",
          "name": "role",
          "type": "bytes32"
        }
      ],
      "name": "getRoleMemberCount",
      "outputs": [
        {
          "internalType": "uint256",
          "name": "",
          "type": "uint256"
        }
      ],
      "stateMutability": "view",
      "type": "function"
    },
    {
      "inputs": [
        {
          "internalType": "bytes32",
          "name": "role",
          "type": "bytes32"
        },
        {
          "internalType": "address",
          "name": "account",
          "type": "address"
        }
      ],
      "name": "grantRole",
      "outputs": [],
      "stateMutability": "nonpayable",
      "type": "function"
    },
    {
      "inputs": [
        {
          "internalType": "bytes32",
          "name": "role",
          "type": "bytes32"
        },
        {
          "internalType": "address",
          "name": "account",
          "type": "address"
        }
      ],
      "name": "hasRole",
      "outputs": [
        {
          "internalType": "bool",
          "name": "",
          "type": "bool"
        }
      ],
      "stateMutability": "view",
      "type": "function"
    },
    {
      "inputs": [],
      "name": "owner",
      "outputs": [
        {
          "internalType": "address",
          "name": "",
          "type": "address"
        }
      ],
      "stateMutability": "view",
      "type": "function"
    },
    {
      "inputs": [],
      "name": "poolFee",
      "outputs": [
        {
          "internalType": "uint24",
          "name": "",
          "type": "uint24"
        }
      ],
      "stateMutability": "view",
      "type": "function"
    },
    {
      "inputs": [],
      "name": "renounceOwnership",
      "outputs": [],
      "stateMutability": "nonpayable",
      "type": "function"
    },
    {
      "inputs": [
        {
          "internalType": "bytes32",
          "name": "role",
          "type": "bytes32"
        },
        {
          "internalType": "address",
          "name": "account",
          "type": "address"
        }
      ],
      "name": "renounceRole",
      "outputs": [],
      "stateMutability": "nonpayable",
      "type": "function"
    },
    {
      "inputs": [
        {
          "internalType": "bytes32",
          "name": "role",
          "type": "bytes32"
        },
        {
          "internalType": "address",
          "name": "account",
          "type": "address"
        }
      ],
      "name": "revokeRole",
      "outputs": [],
      "stateMutability": "nonpayable",
      "type": "function"
    },
    {
      "inputs": [
        {
          "internalType": "address",
          "name": "newOwner",
          "type": "address"
        }
      ],
      "name": "transferOwnership",
      "outputs": [],
      "stateMutability": "nonpayable",
      "type": "function"
    },
    {
      "inputs": [
        {
          "internalType": "address",
          "name": "swapRouter_",
          "type": "address"
        }
      ],
      "name": "initialize",
      "outputs": [],
      "stateMutability": "nonpayable",
      "type": "function"
    },
    {
      "inputs": [
        {
          "internalType": "bytes4",
          "name": "interfaceId",
          "type": "bytes4"
        }
      ],
      "name": "supportsInterface",
      "outputs": [
        {
          "internalType": "bool",
          "name": "",
          "type": "bool"
        }
      ],
      "stateMutability": "view",
      "type": "function"
    },
    {
      "inputs": [
        {
          "internalType": "address",
          "name": "USDC",
          "type": "address"
        },
        {
          "internalType": "address",
          "name": "WETH",
          "type": "address"
        },
        {
          "internalType": "uint256",
          "name": "amountIn",
          "type": "uint256"
        }
      ],
      "name": "swapExactInputSingle",
      "outputs": [
        {
          "internalType": "uint256",
          "name": "amountOut",
          "type": "uint256"
        }
      ],
      "stateMutability": "nonpayable",
      "type": "function"
    }
  ],
  "bytecode": "0x608060405234801561001057600080fd5b50612933806100206000396000f3fe608060405234801561001057600080fd5b50600436106101005760003560e01c80639010d07c11610097578063ca15c87311610066578063ca15c8731461029b578063ceb92012146102cb578063d547741f146102fb578063f2fde38b1461031757610100565b80639010d07c1461020157806391d1485414610231578063a217fddf14610261578063c4d66de81461027f57610100565b806336568abe116100d357806336568abe1461019f578063715018a6146101bb578063797669c9146101c55780638da5cb5b146101e357610100565b806301ffc9a714610105578063089fe6aa14610135578063248a9ca3146101535780632f2ff15d14610183575b600080fd5b61011f600480360381019061011a9190611ca0565b610333565b60405161012c9190611ce8565b60405180910390f35b61013d610345565b60405161014a9190611d21565b60405180910390f35b61016d60048036038101906101689190611d72565b61034b565b60405161017a9190611dae565b60405180910390f35b61019d60048036038101906101989190611e27565b61036b565b005b6101b960048036038101906101b49190611e27565b610394565b005b6101c3610417565b005b6101cd61049f565b6040516101da9190611dae565b60405180910390f35b6101eb6104c3565b6040516101f89190611e76565b60405180910390f35b61021b60048036038101906102169190611ec7565b6104ed565b6040516102289190611e76565b60405180910390f35b61024b60048036038101906102469190611e27565b61051c565b6040516102589190611ce8565b60405180910390f35b610269610587565b6040516102769190611dae565b60405180910390f35b61029960048036038101906102949190611f07565b61058e565b005b6102b560048036038101906102b09190611d72565b6106f0565b6040516102c29190611f43565b60405180910390f35b6102e560048036038101906102e09190611f5e565b610714565b6040516102f29190611f43565b60405180910390f35b61031560048036038101906103109190611e27565b610896565b005b610331600480360381019061032c9190611f07565b6108bf565b005b600061033e826109b7565b9050919050565b610bb881565b600060656000838152602001908152602001600020600101549050919050565b6103748261034b565b61038581610380610a31565b610a39565b61038f8383610ad6565b505050565b61039c610a31565b73ffffffffffffffffffffffffffffffffffffffff168173ffffffffffffffffffffffffffffffffffffffff1614610409576040517f08c379a000000000000000000000000000000000000000000000000000000000815260040161040090612034565b60405180910390fd5b6104138282610b0a565b5050565b61041f610a31565b73ffffffffffffffffffffffffffffffffffffffff1661043d6104c3565b73ffffffffffffffffffffffffffffffffffffffff1614610493576040517f08c379a000000000000000000000000000000000000000000000000000000000815260040161048a906120a0565b60405180910390fd5b61049d6000610b3e565b565b7f71f3d55856e4058ed06ee057d79ada615f65cdf5f9ee88181b914225088f834f81565b600060c960009054906101000a900473ffffffffffffffffffffffffffffffffffffffff16905090565b60006105148260976000868152602001908152602001600020610c0490919063ffffffff16565b905092915050565b60006065600084815260200190815260200160002060000160008373ffffffffffffffffffffffffffffffffffffffff1673ffffffffffffffffffffffffffffffffffffffff16815260200190815260200160002060009054906101000a900460ff16905092915050565b6000801b81565b600060019054906101000a900460ff16806105b4575060008054906101000a900460ff16155b6105f3576040517f08c379a00000000000000000000000000000000000000000000000000000000081526004016105ea90612132565b60405180910390fd5b60008060019054906101000a900460ff161590508015610643576001600060016101000a81548160ff02191690831515021790555060016000806101000a81548160ff0219169083151502179055505b61064b610c1e565b610653610d17565b6106606000801b33610e00565b61068a7f71f3d55856e4058ed06ee057d79ada615f65cdf5f9ee88181b914225088f834f33610e00565b8160fb60006101000a81548173ffffffffffffffffffffffffffffffffffffffff021916908373ffffffffffffffffffffffffffffffffffffffff16021790555080156106ec5760008060016101000a81548160ff0219169083151502179055505b5050565b600061070d60976000848152602001908152602001600020610e0e565b9050919050565b600061072284333085610e23565b61074f8460fb60009054906101000a900473ffffffffffffffffffffffffffffffffffffffff1684610f7b565b60006040518061010001604052808673ffffffffffffffffffffffffffffffffffffffff1681526020018573ffffffffffffffffffffffffffffffffffffffff168152602001610bb862ffffff1681526020013373ffffffffffffffffffffffffffffffffffffffff16815260200142815260200184815260200160008152602001600073ffffffffffffffffffffffffffffffffffffffff16815250905060fb60009054906101000a900473ffffffffffffffffffffffffffffffffffffffff1673ffffffffffffffffffffffffffffffffffffffff1663414bf389826040518263ffffffff1660e01b81526004016108499190612230565b6020604051808303816000875af1158015610868573d6000803e3d6000fd5b505050506040513d601f19601f8201168201806040525081019061088c9190612261565b9150509392505050565b61089f8261034b565b6108b0816108ab610a31565b610a39565b6108ba8383610b0a565b505050565b6108c7610a31565b73ffffffffffffffffffffffffffffffffffffffff166108e56104c3565b73ffffffffffffffffffffffffffffffffffffffff161461093b576040517f08c379a0000000000000000000000000000000000000000000000000000000008152600401610932906120a0565b60405180910390fd5b600073ffffffffffffffffffffffffffffffffffffffff168173ffffffffffffffffffffffffffffffffffffffff1614156109ab576040517f08c379a00000000000000000000000000000000000000000000000000000000081526004016109a290612300565b60405180910390fd5b6109b481610b3e565b50565b60007f5a05180f000000000000000000000000000000000000000000000000000000007bffffffffffffffffffffffffffffffffffffffffffffffffffffffff1916827bffffffffffffffffffffffffffffffffffffffffffffffffffffffff19161480610a2a5750610a29826110d0565b5b9050919050565b600033905090565b610a43828261051c565b610ad257610a688173ffffffffffffffffffffffffffffffffffffffff16601461114a565b610a768360001c602061114a565b604051602001610a87929190612432565b6040516020818303038152906040526040517f08c379a0000000000000000000000000000000000000000000000000000000008152600401610ac991906124b6565b60405180910390fd5b5050565b610ae08282611386565b610b05816097600085815260200190815260200160002061146790919063ffffffff16565b505050565b610b148282611497565b610b39816097600085815260200190815260200160002061157990919063ffffffff16565b505050565b600060c960009054906101000a900473ffffffffffffffffffffffffffffffffffffffff1690508160c960006101000a81548173ffffffffffffffffffffffffffffffffffffffff021916908373ffffffffffffffffffffffffffffffffffffffff1602179055508173ffffffffffffffffffffffffffffffffffffffff168173ffffffffffffffffffffffffffffffffffffffff167f8be0079c531659141344cd1fd0a4f28419497f9722a3daafe3b4186f6b6457e060405160405180910390a35050565b6000610c1383600001836115a9565b60001c905092915050565b600060019054906101000a900460ff1680610c44575060008054906101000a900460ff16155b610c83576040517f08c379a0000000000000000000000000000000000000000000000000000000008152600401610c7a90612132565b60405180910390fd5b60008060019054906101000a900460ff161590508015610cd3576001600060016101000a81548160ff02191690831515021790555060016000806101000a81548160ff0219169083151502179055505b610cdb6115d4565b610ce36116ad565b610ceb611786565b610cf361185f565b8015610d145760008060016101000a81548160ff0219169083151502179055505b50565b600060019054906101000a900460ff1680610d3d575060008054906101000a900460ff16155b610d7c576040517f08c379a0000000000000000000000000000000000000000000000000000000008152600401610d7390612132565b60405180910390fd5b60008060019054906101000a900460ff161590508015610dcc576001600060016101000a81548160ff02191690831515021790555060016000806101000a81548160ff0219169083151502179055505b610dd46115d4565b610ddc611938565b8015610dfd5760008060016101000a81548160ff0219169083151502179055505b50565b610e0a8282610ad6565b5050565b6000610e1c82600001611a21565b9050919050565b6000808573ffffffffffffffffffffffffffffffffffffffff166323b872dd60e01b868686604051602401610e5a939291906124d8565b604051602081830303815290604052907bffffffffffffffffffffffffffffffffffffffffffffffffffffffff19166020820180517bffffffffffffffffffffffffffffffffffffffffffffffffffffffff8381831617835250505050604051610ec49190612556565b6000604051808303816000865af19150503d8060008114610f01576040519150601f19603f3d011682016040523d82523d6000602084013e610f06565b606091505b5091509150818015610f345750600081511480610f33575080806020019051810190610f329190612599565b5b5b610f73576040517f08c379a0000000000000000000000000000000000000000000000000000000008152600401610f6a90612612565b60405180910390fd5b505050505050565b6000808473ffffffffffffffffffffffffffffffffffffffff1663095ea7b360e01b8585604051602401610fb0929190612632565b604051602081830303815290604052907bffffffffffffffffffffffffffffffffffffffffffffffffffffffff19166020820180517bffffffffffffffffffffffffffffffffffffffffffffffffffffffff838183161783525050505060405161101a9190612556565b6000604051808303816000865af19150503d8060008114611057576040519150601f19603f3d011682016040523d82523d6000602084013e61105c565b606091505b509150915081801561108a57506000815114806110895750808060200190518101906110889190612599565b5b5b6110c9576040517f08c379a00000000000000000000000000000000000000000000000000000000081526004016110c0906126a7565b60405180910390fd5b5050505050565b60007f7965db0b000000000000000000000000000000000000000000000000000000007bffffffffffffffffffffffffffffffffffffffffffffffffffffffff1916827bffffffffffffffffffffffffffffffffffffffffffffffffffffffff19161480611143575061114282611a32565b5b9050919050565b60606000600283600261115d91906126f6565b6111679190612750565b67ffffffffffffffff8111156111805761117f6127a6565b5b6040519080825280601f01601f1916602001820160405280156111b25781602001600182028036833780820191505090505b5090507f3000000000000000000000000000000000000000000000000000000000000000816000815181106111ea576111e96127d5565b5b60200101907effffffffffffffffffffffffffffffffffffffffffffffffffffffffffffff1916908160001a9053507f78000000000000000000000000000000000000000000000000000000000000008160018151811061124e5761124d6127d5565b5b60200101907effffffffffffffffffffffffffffffffffffffffffffffffffffffffffffff1916908160001a9053506000600184600261128e91906126f6565b6112989190612750565b90505b6001811115611338577f3031323334353637383961626364656600000000000000000000000000000000600f8616601081106112da576112d96127d5565b5b1a60f81b8282815181106112f1576112f06127d5565b5b60200101907effffffffffffffffffffffffffffffffffffffffffffffffffffffffffffff1916908160001a905350600485901c94508061133190612804565b905061129b565b506000841461137c576040517f08c379a00000000000000000000000000000000000000000000000000000000081526004016113739061287a565b60405180910390fd5b8091505092915050565b611390828261051c565b6114635760016065600084815260200190815260200160002060000160008373ffffffffffffffffffffffffffffffffffffffff1673ffffffffffffffffffffffffffffffffffffffff16815260200190815260200160002060006101000a81548160ff021916908315150217905550611408610a31565b73ffffffffffffffffffffffffffffffffffffffff168173ffffffffffffffffffffffffffffffffffffffff16837f2f8788117e7eff1d82e926ec794901d17c78024a50270940304540a733656f0d60405160405180910390a45b5050565b600061148f836000018373ffffffffffffffffffffffffffffffffffffffff1660001b611a9c565b905092915050565b6114a1828261051c565b156115755760006065600084815260200190815260200160002060000160008373ffffffffffffffffffffffffffffffffffffffff1673ffffffffffffffffffffffffffffffffffffffff16815260200190815260200160002060006101000a81548160ff02191690831515021790555061151a610a31565b73ffffffffffffffffffffffffffffffffffffffff168173ffffffffffffffffffffffffffffffffffffffff16837ff6391f5c32d9c69d2a47ea670b442974b53935d1edc7fd64eb21e047a839171b60405160405180910390a45b5050565b60006115a1836000018373ffffffffffffffffffffffffffffffffffffffff1660001b611b0c565b905092915050565b60008260000182815481106115c1576115c06127d5565b5b9060005260206000200154905092915050565b600060019054906101000a900460ff16806115fa575060008054906101000a900460ff16155b611639576040517f08c379a000000000000000000000000000000000000000000000000000000000815260040161163090612132565b60405180910390fd5b60008060019054906101000a900460ff161590508015611689576001600060016101000a81548160ff02191690831515021790555060016000806101000a81548160ff0219169083151502179055505b80156116aa5760008060016101000a81548160ff0219169083151502179055505b50565b600060019054906101000a900460ff16806116d3575060008054906101000a900460ff16155b611712576040517f08c379a000000000000000000000000000000000000000000000000000000000815260040161170990612132565b60405180910390fd5b60008060019054906101000a900460ff161590508015611762576001600060016101000a81548160ff02191690831515021790555060016000806101000a81548160ff0219169083151502179055505b80156117835760008060016101000a81548160ff0219169083151502179055505b50565b600060019054906101000a900460ff16806117ac575060008054906101000a900460ff16155b6117eb576040517f08c379a00000000000000000000000000000000000000000000000000000000081526004016117e290612132565b60405180910390fd5b60008060019054906101000a900460ff16159050801561183b576001600060016101000a81548160ff02191690831515021790555060016000806101000a81548160ff0219169083151502179055505b801561185c5760008060016101000a81548160ff0219169083151502179055505b50565b600060019054906101000a900460ff1680611885575060008054906101000a900460ff16155b6118c4576040517f08c379a00000000000000000000000000000000000000000000000000000000081526004016118bb90612132565b60405180910390fd5b60008060019054906101000a900460ff161590508015611914576001600060016101000a81548160ff02191690831515021790555060016000806101000a81548160ff0219169083151502179055505b80156119355760008060016101000a81548160ff0219169083151502179055505b50565b600060019054906101000a900460ff168061195e575060008054906101000a900460ff16155b61199d576040517f08c379a000000000000000000000000000000000000000000000000000000000815260040161199490612132565b60405180910390fd5b60008060019054906101000a900460ff1615905080156119ed576001600060016101000a81548160ff02191690831515021790555060016000806101000a81548160ff0219169083151502179055505b6119fd6119f8610a31565b610b3e565b8015611a1e5760008060016101000a81548160ff0219169083151502179055505b50565b600081600001805490509050919050565b60007f01ffc9a7000000000000000000000000000000000000000000000000000000007bffffffffffffffffffffffffffffffffffffffffffffffffffffffff1916827bffffffffffffffffffffffffffffffffffffffffffffffffffffffff1916149050919050565b6000611aa88383611c20565b611b01578260000182908060018154018082558091505060019003906000526020600020016000909190919091505582600001805490508360010160008481526020019081526020016000208190555060019050611b06565b600090505b92915050565b60008083600101600084815260200190815260200160002054905060008114611c14576000600182611b3e919061289a565b9050600060018660000180549050611b56919061289a565b9050818114611bc5576000866000018281548110611b7757611b766127d5565b5b9060005260206000200154905080876000018481548110611b9b57611b9a6127d5565b5b90600052602060002001819055508387600101600083815260200190815260200160002081905550505b85600001805480611bd957611bd86128ce565b5b600190038181906000526020600020016000905590558560010160008681526020019081526020016000206000905560019350505050611c1a565b60009150505b92915050565b600080836001016000848152602001908152602001600020541415905092915050565b600080fd5b60007fffffffff0000000000000000000000000000000000000000000000000000000082169050919050565b611c7d81611c48565b8114611c8857600080fd5b50565b600081359050611c9a81611c74565b92915050565b600060208284031215611cb657611cb5611c43565b5b6000611cc484828501611c8b565b91505092915050565b60008115159050919050565b611ce281611ccd565b82525050565b6000602082019050611cfd6000830184611cd9565b92915050565b600062ffffff82169050919050565b611d1b81611d03565b82525050565b6000602082019050611d366000830184611d12565b92915050565b6000819050919050565b611d4f81611d3c565b8114611d5a57600080fd5b50565b600081359050611d6c81611d46565b92915050565b600060208284031215611d8857611d87611c43565b5b6000611d9684828501611d5d565b91505092915050565b611da881611d3c565b82525050565b6000602082019050611dc36000830184611d9f565b92915050565b600073ffffffffffffffffffffffffffffffffffffffff82169050919050565b6000611df482611dc9565b9050919050565b611e0481611de9565b8114611e0f57600080fd5b50565b600081359050611e2181611dfb565b92915050565b60008060408385031215611e3e57611e3d611c43565b5b6000611e4c85828601611d5d565b9250506020611e5d85828601611e12565b9150509250929050565b611e7081611de9565b82525050565b6000602082019050611e8b6000830184611e67565b92915050565b6000819050919050565b611ea481611e91565b8114611eaf57600080fd5b50565b600081359050611ec181611e9b565b92915050565b60008060408385031215611ede57611edd611c43565b5b6000611eec85828601611d5d565b9250506020611efd85828601611eb2565b9150509250929050565b600060208284031215611f1d57611f1c611c43565b5b6000611f2b84828501611e12565b91505092915050565b611f3d81611e91565b82525050565b6000602082019050611f586000830184611f34565b92915050565b600080600060608486031215611f7757611f76611c43565b5b6000611f8586828701611e12565b9350506020611f9686828701611e12565b9250506040611fa786828701611eb2565b9150509250925092565b600082825260208201905092915050565b7f416363657373436f6e74726f6c3a2063616e206f6e6c792072656e6f756e636560008201527f20726f6c657320666f722073656c660000000000000000000000000000000000602082015250565b600061201e602f83611fb1565b915061202982611fc2565b604082019050919050565b6000602082019050818103600083015261204d81612011565b9050919050565b7f4f776e61626c653a2063616c6c6572206973206e6f7420746865206f776e6572600082015250565b600061208a602083611fb1565b915061209582612054565b602082019050919050565b600060208201905081810360008301526120b98161207d565b9050919050565b7f496e697469616c697a61626c653a20636f6e747261637420697320616c72656160008201527f647920696e697469616c697a6564000000000000000000000000000000000000602082015250565b600061211c602e83611fb1565b9150612127826120c0565b604082019050919050565b6000602082019050818103600083015261214b8161210f565b9050919050565b61215b81611de9565b82525050565b61216a81611d03565b82525050565b61217981611e91565b82525050565b61218881611dc9565b82525050565b610100820160008201516121a56000850182612152565b5060208201516121b86020850182612152565b5060408201516121cb6040850182612161565b5060608201516121de6060850182612152565b5060808201516121f16080850182612170565b5060a082015161220460a0850182612170565b5060c082015161221760c0850182612170565b5060e082015161222a60e085018261217f565b50505050565b600061010082019050612246600083018461218e565b92915050565b60008151905061225b81611e9b565b92915050565b60006020828403121561227757612276611c43565b5b60006122858482850161224c565b91505092915050565b7f4f776e61626c653a206e6577206f776e657220697320746865207a65726f206160008201527f6464726573730000000000000000000000000000000000000000000000000000602082015250565b60006122ea602683611fb1565b91506122f58261228e565b604082019050919050565b60006020820190508181036000830152612319816122dd565b9050919050565b600081905092915050565b7f416363657373436f6e74726f6c3a206163636f756e7420000000000000000000600082015250565b6000612361601783612320565b915061236c8261232b565b601782019050919050565b600081519050919050565b60005b838110156123a0578082015181840152602081019050612385565b838111156123af576000848401525b50505050565b60006123c082612377565b6123ca8185612320565b93506123da818560208601612382565b80840191505092915050565b7f206973206d697373696e6720726f6c6520000000000000000000000000000000600082015250565b600061241c601183612320565b9150612427826123e6565b601182019050919050565b600061243d82612354565b915061244982856123b5565b91506124548261240f565b915061246082846123b5565b91508190509392505050565b6000601f19601f8301169050919050565b600061248882612377565b6124928185611fb1565b93506124a2818560208601612382565b6124ab8161246c565b840191505092915050565b600060208201905081810360008301526124d0818461247d565b905092915050565b60006060820190506124ed6000830186611e67565b6124fa6020830185611e67565b6125076040830184611f34565b949350505050565b600081519050919050565b600081905092915050565b60006125308261250f565b61253a818561251a565b935061254a818560208601612382565b80840191505092915050565b60006125628284612525565b915081905092915050565b61257681611ccd565b811461258157600080fd5b50565b6000815190506125938161256d565b92915050565b6000602082840312156125af576125ae611c43565b5b60006125bd84828501612584565b91505092915050565b7f5354460000000000000000000000000000000000000000000000000000000000600082015250565b60006125fc600383611fb1565b9150612607826125c6565b602082019050919050565b6000602082019050818103600083015261262b816125ef565b9050919050565b60006040820190506126476000830185611e67565b6126546020830184611f34565b9392505050565b7f5341000000000000000000000000000000000000000000000000000000000000600082015250565b6000612691600283611fb1565b915061269c8261265b565b602082019050919050565b600060208201905081810360008301526126c081612684565b9050919050565b7f4e487b7100000000000000000000000000000000000000000000000000000000600052601160045260246000fd5b600061270182611e91565b915061270c83611e91565b9250817fffffffffffffffffffffffffffffffffffffffffffffffffffffffffffffffff0483118215151615612745576127446126c7565b5b828202905092915050565b600061275b82611e91565b915061276683611e91565b9250827fffffffffffffffffffffffffffffffffffffffffffffffffffffffffffffffff0382111561279b5761279a6126c7565b5b828201905092915050565b7f4e487b7100000000000000000000000000000000000000000000000000000000600052604160045260246000fd5b7f4e487b7100000000000000000000000000000000000000000000000000000000600052603260045260246000fd5b600061280f82611e91565b91506000821415612823576128226126c7565b5b600182039050919050565b7f537472696e67733a20686578206c656e67746820696e73756666696369656e74600082015250565b6000612864602083611fb1565b915061286f8261282e565b602082019050919050565b6000602082019050818103600083015261289381612857565b9050919050565b60006128a582611e91565b91506128b083611e91565b9250828210156128c3576128c26126c7565b5b828203905092915050565b7f4e487b7100000000000000000000000000000000000000000000000000000000600052603160045260246000fdfea2646970667358221220add866d3e5dca7bb6e057e3a16240d34eca4c9c6c1efa90a31c708a8fd0ebd7264736f6c634300080a0033",
  "immutableReferences": {},
  "source": "// SPDX-License-Identifier: MIT\npragma solidity 0.8.10;\n\nimport \"@openzeppelin/contracts-upgradeable/access/AccessControlEnumerableUpgradeable.sol\";\nimport \"@openzeppelin/contracts-upgradeable/access/OwnableUpgradeable.sol\";\nimport \"@uniswap/v3-periphery/contracts/libraries/TransferHelper.sol\";\nimport \"@uniswap/v3-periphery/contracts/interfaces/ISwapRouter.sol\";\n\ncontract OrderUpgradeable is\n  AccessControlEnumerableUpgradeable,\n  OwnableUpgradeable\n{\n  bytes32 public constant MODERATOR_ROLE = keccak256(\"MODERATOR_ROLE\");  \n  uint24 public constant poolFee = 3000;\n     \n  ISwapRouter private swapRouter;\n\n  /***\n   * Public functions\n   */\n   function initialize(address swapRouter_) initializer public {\n     __AccessControlEnumerable_init();\n     __Ownable_init();\n\n     _setupRole(DEFAULT_ADMIN_ROLE, msg.sender);\n     _setupRole(MODERATOR_ROLE, msg.sender);\n     \n     swapRouter = ISwapRouter(swapRouter_);\n   }\n\n  function supportsInterface(bytes4 interfaceId) public view virtual override(AccessControlEnumerableUpgradeable) returns (bool) {\n    return super.supportsInterface(interfaceId);\n  }\n\n  function swapExactInputSingle(address USDC, address WETH, uint256 amountIn) external returns (uint256 amountOut) {      \n    TransferHelper.safeTransferFrom(USDC, msg.sender, address(this), amountIn);\n    TransferHelper.safeApprove(USDC, address(swapRouter), amountIn);\n\n    ISwapRouter.ExactInputSingleParams memory params =\n      ISwapRouter.ExactInputSingleParams({\n        tokenIn: USDC,\n        tokenOut: WETH,\n        fee: poolFee,\n        recipient: msg.sender,\n        deadline: block.timestamp,\n        amountIn: amountIn,\n        amountOutMinimum: 0,\n        sqrtPriceLimitX96: 0\n      });\n    \n    amountOut = swapRouter.exactInputSingle(params);      \n  }\n      \n  /***\n   * Internal functions\n   */\n\n}\n",
  "sourcePath": "/Users/haiminhnguyen/Data/Projects/traderchain-contracts/contracts/OrderUpgradeable.sol",
  "compiler": {
    "name": "solc",
    "version": "0.8.10+commit.fc410830.Emscripten.clang"
  },
  "schemaVersion": "3.4.3",
  "updatedAt": "2022-09-19T17:56:07.505Z",
  "devdoc": {
    "kind": "dev",
    "methods": {
      "getRoleAdmin(bytes32)": {
        "details": "Returns the admin role that controls `role`. See {grantRole} and {revokeRole}. To change a role's admin, use {_setRoleAdmin}."
      },
      "getRoleMember(bytes32,uint256)": {
        "details": "Returns one of the accounts that have `role`. `index` must be a value between 0 and {getRoleMemberCount}, non-inclusive. Role bearers are not sorted in any particular way, and their ordering may change at any point. WARNING: When using {getRoleMember} and {getRoleMemberCount}, make sure you perform all queries on the same block. See the following https://forum.openzeppelin.com/t/iterating-over-elements-on-enumerableset-in-openzeppelin-contracts/2296[forum post] for more information."
      },
      "getRoleMemberCount(bytes32)": {
        "details": "Returns the number of accounts that have `role`. Can be used together with {getRoleMember} to enumerate all bearers of a role."
      },
      "grantRole(bytes32,address)": {
        "details": "Grants `role` to `account`. If `account` had not been already granted `role`, emits a {RoleGranted} event. Requirements: - the caller must have ``role``'s admin role."
      },
      "hasRole(bytes32,address)": {
        "details": "Returns `true` if `account` has been granted `role`."
      },
      "owner()": {
        "details": "Returns the address of the current owner."
      },
      "renounceOwnership()": {
        "details": "Leaves the contract without owner. It will not be possible to call `onlyOwner` functions anymore. Can only be called by the current owner. NOTE: Renouncing ownership will leave the contract without an owner, thereby removing any functionality that is only available to the owner."
      },
      "renounceRole(bytes32,address)": {
        "details": "Revokes `role` from the calling account. Roles are often managed via {grantRole} and {revokeRole}: this function's purpose is to provide a mechanism for accounts to lose their privileges if they are compromised (such as when a trusted device is misplaced). If the calling account had been revoked `role`, emits a {RoleRevoked} event. Requirements: - the caller must be `account`."
      },
      "revokeRole(bytes32,address)": {
        "details": "Revokes `role` from `account`. If `account` had been granted `role`, emits a {RoleRevoked} event. Requirements: - the caller must have ``role``'s admin role."
      },
      "supportsInterface(bytes4)": {
        "details": "See {IERC165-supportsInterface}."
      },
      "transferOwnership(address)": {
        "details": "Transfers ownership of the contract to a new account (`newOwner`). Can only be called by the current owner."
      }
    },
    "version": 1
  },
  "userdoc": {
    "kind": "user",
    "methods": {},
    "version": 1
  }
}